:100000000C9463000C948B000C948B000C944908A6
:100010000C9449080C9449080C948B000C948B00A8
:100020000C948B000C948B000C948B000C948B0024
:100030000C948B000C948B000C948B000C948B0014
:100040000C94FF070C948B000C94CD070C94A7071D
:100050000C948B000C948B000C948B000C948B00F4
:100060000C94C1080C948B000000000024002700B1
:100070002A0000000008000201000003040700003D
:1000800000000000000000000000230026002900FE
:1000900000000000250028002B00040404040404D0
:1000A0000404020202020202030303030303010227
:1000B00004081020408001020408102001020408F6
:1000C0001020E009C30D11241FBECFEFD8E0DEBF22
:1000D000CDBF24E0AEE2B2E001C01D92A931B2076B
:1000E000E1F712E0A0E0B1E0E2E4F5E202C0059041
:1000F0000D92AE32B107D9F710E0C2E6D0E004C0ED
:100100002197FE010E949C10C136D107C9F70E94B9
:10011000B20A0C9494120C94000008950895AF92C2
:10012000BF92CF92DF92EF92FF920F931F93CF93E4
:10013000DF936C017B018B01040F151FEB015E0146
:10014000AE18BF08C017D10759F06991D601ED91DB
:10015000FC910190F081E02DC6010995892B79F77A
:10016000C501DF91CF911F910F91FF90EF90DF902C
:10017000CF90BF90AF900895FC01538D448D252FF3
:1001800030E0842F90E0821B930B541710F0CF9631
:10019000089501970895FC01918D828D981761F063
:1001A000A28DAE0FBF2FB11D5D968C91928D9F5F7A
:1001B0009F73928F90E008958FEF9FEF0895FC0159
:1001C000918D828D981731F0828DE80FF11D858D0C
:1001D00090E008958FEF9FEF0895FC01918D228D9F
:1001E000892F90E0805C9F4F821B91098F73992724
:1001F000089581E493E00E94ED0021E0892B09F449
:1002000020E0822F089580E090E0892B29F00E9461
:10021000F90081110C9400000895FC01A48DA80F31
:10022000B92FB11DA35ABF4F2C91848D90E0019638
:100230008F739927848FA689B7892C93A089B18958
:100240008C91837080648C93938D848D981306C0F9
:100250000288F389E02D80818F7D80830895EF925D
:10026000FF920F931F93CF93DF93EC0181E0888F70
:100270009B8D8C8D98131AC0E889F989808185FF40
:1002800015C09FB7F894EE89FF896083E889F989E2
:1002900080818370806480839FBF81E090E0DF91E4
:1002A000CF911F910F91FF90EF900895F62E0B8D37
:1002B00010E00F5F1F4F0F731127E02E8C8D8E11F2
:1002C0000CC00FB607FCFACFE889F989808185FF59
:1002D000F5CFCE010E940D01F1CFEB8DEC0FFD2F7C
:1002E000F11DE35AFF4FF0829FB7F8940B8FEA8914
:1002F000FB8980818062CFCFCF93DF93EC01888D23
:100300008823B9F0AA89BB89E889F9898C9185FD90
:1003100003C0808186FD0DC00FB607FCF7CF8C911E
:1003200085FFF2CF808185FFEDCFCE010E940D01C8
:10033000E9CFDF91CF910895833081F028F48130A7
:1003400099F08230A9F008958730A9F08830C9F07B
:100350008430B1F4809180008F7D03C08091800053
:100360008F7780938000089584B58F7784BD08953A
:1003700084B58F7DFBCF8091B0008F778093B000E4
:1003800008958091B0008F7DF9CFCF93DF93282F10
:1003900030E0F901EE58FF4F8491F901E255FF4F2B
:1003A000D491F901E656FF4FC491CC23A1F08111FD
:1003B0000E949C01EC2FF0E0EE0FFF1FEA57FF4F69
:1003C000A591B491EC91ED2381E090E009F480E0F7
:1003D000DF91CF91089580E090E0FACF1F93CF9303
:1003E000DF93282F30E0F901EE58FF4F8491F90197
:1003F000E255FF4FD491F901E656FF4FC491CC234B
:10040000A9F0162F81110E949C01EC2FF0E0EE0F55
:10041000FF1FE057FF4FA591B4918FB7F894EC916F
:10042000111108C0D095DE23DC938FBFDF91CF91EF
:100430001F910895DE2BF8CFCF93DF9390E0FC015E
:10044000E255FF4F249186569F4FFC0184918823EB
:10045000D1F090E0880F991FFC01E859FF4FA5915A
:10046000B491FC01E057FF4FC591D49161110EC0CA
:100470009FB7F8948C91E22FE0958E238C9328817E
:10048000E223E8839FBFDF91CF9108958FB7F8945F
:10049000EC91E22BEC938FBFF6CF8E50806480936B
:1004A0007C0080917A00806480937A0080917A0049
:1004B00086FDFCCF809178009091790008953FB738
:1004C000F8948091250390912603A0912703B09181
:1004D000280326B5A89B05C02F3F19F00196A11D42
:1004E000B11D3FBFBA2FA92F982F8827BC01CD017E
:1004F000620F711D811D911D42E0660F771F881FDD
:10050000991F4A95D1F708958F929F92AF92BF920B
:10051000CF92DF92EF92FF924B015C010E945F024B
:100520006B017C010E945F026C197D098E099F0995
:10053000683E734081059105A8F321E0821A910875
:10054000A108B10888EEC80E83E0D81EE11CF11C9A
:1005500081149104A104B10429F7FF90EF90DF907A
:10056000CF90BF90AF909F908F90089520912B03D4
:1005700030912C032817390771F490912903809149
:100580002A03981741F0E0912903F0E0E052FD4F73
:10059000808190E008958FEF9FEF08950895EF9286
:1005A000FF920F931F93CF93DF93DC015C96ED9046
:1005B000FC905D97E114F10479F481E090E01396EA
:1005C0009C938E93129790E080E0DF91CF911F91E2
:1005D0000F91FF90EF9008955196ED91FC915297F5
:1005E00050968C915097982F90950FB75E962C91BE
:1005F0005E97122F127021FD6095F89420811123CF
:1006000019F1282B2083E7012197F1F728E0462FE5
:1006100050E0308160FF1AC0382B3083E70121970A
:10062000F1F7BA0175956795215089F7112381F08B
:100630008081892380830FBF5C968D919C91019767
:10064000F1F781E090E0C1CF2923DCCF3923E5CF5A
:100650009081892BEFCF20912B0330912C03281709
:10066000390771F480912A032091290390E0805C7E
:100670009F4F821B910960E470E00E945210089520
:1006800090E080E0089520912B0330912C032817EF
:100690003907B9F49091290380912A03981789F0BA
:1006A000E0912903F0E0E052FD4F80812091290381
:1006B00030E02F5F3F4F2F7333272093290390E0C3
:1006C00008958FEF9FEF0895089520916F02260FF0
:1006D0003327331F21323105ECF42091B802FC019D
:1006E00090E080E0243069F082E00895A0916F02EC
:1006F0002191AC01415B5D4FA40FB52FB11D2C932F
:100700000196861798F380916F02680F60936F02CD
:1007100080E0089581E008951092B80281E080930E
:10072000B7021092920261E082E10E94EE0161E064
:1007300083E10E94EE01E9EBF0E080818E7F80830F
:1007400080818D7F808388E48093B80085E48093E6
:10075000BC000895CF93DF9391E090934E028823DD
:10076000B9F0C091B800D091BA008091BC008A7BEA
:100770008093BC0060E082E10E94EE0160E083E1D2
:100780000E94EE010E948C03D093BA00C093B8007F
:10079000DF91CF910895E091340380913303E817FE
:1007A00030F4F0E0E25DFD4F808190E008958FEF3E
:1007B0009FEF089590913403809133032FEF3FEF23
:1007C000981748F4E92FF0E0E25DFD4F208130E01A
:1007D0009F5F90933403C9010895809133039091F2
:1007E0003403891B990B0895CF92DF92EF92FF9209
:1007F0000F931F93CF93DF937C01CB018A0120914C
:10080000BE02222389F0EB016B01C40ED51ECC156C
:10081000DD0569F06991D701ED91FC910190F081BE
:10082000E02DC7010995F3CF642F0E946503C8012D
:10083000DF91CF911F910F91FF90EF90DF90CF90BC
:100840000895CF93DF931F92CDB7DEB769832091D0
:10085000BE022223F9F020913103203258F021E02A
:1008600030E0FC013383228390E080E00F90DF9141
:10087000CF91089580913203E82FF0E0E154FD4FCD
:10088000998190838F5F809332038093310381E05D
:1008900090E0ECCF61E0CE0101960E946503F7CFB6
:1008A000CF92DF92EF92FF920F931F93CF93DF933C
:1008B000FC01C48121E02093BE02C093DF021092AC
:1008C0003203109231038385682B8EED93E00E94F2
:1008D0002104D0913103D13208F092C00E945F020E
:1008E0006B017C018091B802811165C082E0809328
:1008F000B80281E08093B7028FEF8093B602109226
:10090000B502D093B402AFEBB2E0E4E9F2E080E0EC
:10091000D81385C01092930280919302CC0FC82BFC
:10092000C093930280919202813009F07CC01092B2
:1009300092020E945F026B017C018091930280937E
:10094000BB008091BA029091BB02A091BC02B09111
:10095000BD02892B8A2B8B2B99F00E945F0200919C
:10096000BA021091BB022091BC023091BD026C19F9
:100970007D098E099F090617170728073907E0F137
:100980008091BC0083FDD9CF85EC8093BC000E9490
:100990005F026B017C018091B802823009F445C08E
:1009A0008091B6028F3F61F18091B602803241F1B1
:1009B0008091B60225C08091BA029091BB02A091AD
:1009C000BC02B091BD02892B8A2B8B2B09F48ACFF4
:1009D0000E945F020091BA021091BB022091BC02FA
:1009E0003091BD026C197D098E099F090617170702
:1009F0002807390708F076CF8091B9020E94AA0330
:100A000010923203109231031092BE02DF91CF9107
:100A10001F910F91FF90EF90DF90CF9008959D91DF
:100A200091938F5F75CF85EEB0CF8091BA02909190
:100A3000BB02A091BC02B091BD02892B8A2B8B2BEB
:100A400009F4A9CF0E945F020091BA021091BB0283
:100A50002091BC023091BD026C197D098E099F095D
:100A6000061717072807390708F095CFC5CF90E07C
:100A700080E008950F931F93CF938C01C62F0E949F
:100A800050046C2F6460C8010E9450046C2F6B7F6F
:100A9000C8010E94500483EC90E00197F1F7CF91D8
:100AA0001F910F9108950F931F93CF93DF938C01A4
:100AB000D62FC42F607F642B0E943A0580E1D89F17
:100AC000B00111246C2BC801DF91CF911F910F91C0
:100AD0000C943A05CF93DF93CDB7DEB728970FB6C6
:100AE000F894DEBF0FBECDBF98E0E6E0F1E0DE0196
:100AF000119601900D929A95E1F790911104961735
:100B000010F46FEF690F262F30E0220F331F41E002
:100B100050E04C0F5D1F240F351FF9016081680FF5
:100B2000606840E089E094E028960FB6F894DEBF54
:100B30000FBECDBFDF91CF910C94530541E00E94D1
:100B4000530581E090E00895FC0180819181009738
:100B500011F00C943E110895FB0101900020E9F77B
:100B60003197AF01461B570BDC01ED91FC910280E0
:100B7000F381E02D09948F929F92AF92BF920F93D1
:100B80001F93CF93DF93CDB7DEB7A1970FB6F8943D
:100B9000DEBF0FBECDBF19A2423008F44AE08E017D
:100BA0000F5D1F4F842E912CB12CA12CA501940117
:100BB0000E946610E62FB901CA01EA3004F5E05D33
:100BC000D801EE938D01232B242B252B79F790E070
:100BD00080E0109729F0BD0189E094E00E94AC0507
:100BE000A1960FB6F894DEBF0FBECDBFDF91CF91B7
:100BF0001F910F91BF90AF909F908F900895E95CE7
:100C0000DFCFBC0189E094E00C94AC054F925F9279
:100C10006F927F928F929F92AF92BF92CF92DF920C
:100C2000EF92FF920F931F93CF936B017C01742E71
:100C3000AC019B010E944D1060E571E0811126C05E
:100C400046015701E894B7F82FEF3FEF4FE75FE712
:100C5000C501B4010E944D1081110CC02FEF3FEF70
:100C60004FE75FE7C501B4010E94DF0D64E571E065
:100C7000181664F02FEF3FEF4FE75FE4C701B601AE
:100C80000E9448101816ACF468E571E089E094E021
:100C9000CF911F910F91FF90EF90DF90CF90BF9079
:100CA000AF909F908F907F906F905F904F900C943B
:100CB000AC052FEF3FEF4FE75FECC701B6010E9495
:100CC000DF0D87FDE1CF20E030E0A901C701B601CB
:100CD0000E94DF0D10E000E087FF0CC041E06DE2F4
:100CE00089E094E00E945305F7FAF094F7F8F09445
:100CF00001E010E0C0E060E070E080E09FE37C167F
:100D000041F020E030E040E251E40E94A70FCF5FC5
:100D1000F6CFA70196010E943B0F4B015C010E9498
:100D200019102B013C014AE00E94BB05080F191F56
:100D3000CC23C9F1C301B2010E94E40D9B01AC01B7
:100D4000C501B4010E943A0F4B015C0141E06EE223
:100D500089E094E00E9453050F5F1F4FC15018F1C6
:100D600020E030E040E251E4C501B4010E94450EAC
:100D70002B013C010E9419104B01B12CA12C4AE01F
:100D8000C501B4010E94BB05080F191FC501B401BC
:100D90000E94E40D9B01AC01C301B2010E943A0F15
:100DA0004B015C01DBCFC801CF911F910F91FF90E8
:100DB000EF90DF90CF90BF90AF909F908F907F90FB
:100DC0006F905F904F900895CF93DF93EC016CE5A7
:100DD00071E08AEE93E00E94AC0566E671E08AEE6F
:100DE00093E00E94AC0564EF71E080E090E00E9427
:100DF000840269E671E08AEE93E00E94AC0566E643
:100E000071E08AEE93E00E94AC0564EF71E080E04F
:100E100090E00E9484024C815D81688179818AEE34
:100E200093E00E948F0064EF71E080E090E00E9408
:100E300084026AE18AEE93E00E94CF0268EE73E0DA
:100E400080E090E0DF91CF910C948402EF92FF92CA
:100E50000F931F93CF93DF93EC017B0119821882CC
:100E60001B821A821D821C82FB0101900020E9F77F
:100E700031978F01061B170BB8016F5F7F4F90E012
:100E800080E00E94C7110097B9F0998388831B8383
:100E90000A832C813D81232B11F4FC0110821D83D8
:100EA0000C83B70188819981DF91CF911F910F91B8
:100EB000FF90EF900C948D1288819981009711F02A
:100EC0000E943E11198218821D821C821B821A8286
:100ED000DF91CF911F910F91FF90EF90089585EDD5
:100EE0008093BC008091BA029091BB02A091BC0299
:100EF000B091BD020796A11DB11D23E0B695A7953F
:100F0000979587952A95D1F72091BC0024FD03C0C1
:100F10001092B80208954091BA025091BB026091BC
:100F2000BC027091BD02452B462B472B69F30097FD
:100F3000A105B10541F025E32A95F1F700000197DD
:100F4000A109B109E1CF8091B9020C94AA031F92C3
:100F50000F920FB60F9211242F933F934F935F93ED
:100F60006F937F938F939F93AF93BF93EF93FF9371
:100F700081E493E00E940D01FF91EF91BF91AF9149
:100F80009F918F917F916F915F914F913F912F91A1
:100F90000F900FBE0F901F9018951F920F920FB6D3
:100FA0000F9211242F938F939F93EF93FF93E091D0
:100FB0005103F09152038081E0915703F09158035F
:100FC00082FD1BC0908180915A038F5F8F732091A7
:100FD0005B03821741F0E0915A03F0E0EF5BFC4FB6
:100FE000958F80935A03FF91EF919F918F912F914D
:100FF0000F900FBE0F901F9018958081F4CF1F9215
:101000000F920FB60F9211242F933F938F939F93BC
:10101000AF93BF938091210390912203A09123036A
:10102000B09124033091200323E0230F2D3758F58E
:101030000196A11DB11D209320038093210390935D
:101040002203A0932303B09324038091250390915E
:101050002603A0912703B09128030196A11DB11D7D
:101060008093250390932603A0932703B09328032E
:10107000BF91AF919F918F913F912F910F900FBE94
:101080000F901F90189526E8230F0296A11DB11D01
:10109000D2CF1F920F920FB60F9211242F933F932E
:1010A0004F935F936F937F938F939F93AF93BF9370
:1010B000EF93FF93E0912B03F0912C03309749F0CD
:1010C000A685B7858585968D91FF14C09C9189234F
:1010D000A1F4FF91EF91BF91AF919F918F917F917B
:1010E0006F915F914F913F912F910F900FBE0F9095
:1010F0001F9018959C91892361F7A389B4899C91CD
:101100008589809589238C93868997890197F1F742
:10111000608D718DA685B785558538E020E0CB01BF
:101120000197F1F7822F90E095958795282F4C91A4
:10113000452309F02068315091F7868D81FD209577
:1011400080912A0390E001968F73992730912903AB
:10115000381799F0A0912A03B0E0A052BD4F2C930C
:1011600080932A03828D938D0197F1F7A389B48927
:101170008C919589892B8C93ACCF868D8160868FDD
:10118000F1CF1F920F920FB60F9211242F933F931E
:101190004F935F936F937F938F939F93AF93BF937F
:1011A000EF93FF938091B900887F803609F44AC09D
:1011B000F0F5883209F4A7C018F5803109F49BC016
:1011C000B8F4882309F4F9C0883009F494C0FF9179
:1011D000EF91BF91AF919F918F917F916F915F91AF
:1011E0004F913F912F910F900FBE0F901F90189528
:1011F000883109F488C0803251F78093B60214C058
:10120000803409F49DC040F48033B9F38833F9F693
:101210008093B60285ECB0C0803509F485C088356E
:1012200009F496C0883499F60E946F07D0CF8839A8
:1012300009F48CC038F5883729F050F4883611F05D
:10124000803729F683E08093B8021092910257C04C
:10125000883809F47BC0803919F0803809F0B7CF9D
:1012600080919102803208F071C0E091910281E09A
:101270008E0F809391028091BB00F0E0EF58FD4FFC
:1012800080833DC0803B39F0E0F4803A09F479C0B6
:10129000883A09F09CCF84E08093B80210927002E3
:1012A00010926F02E0912F03F09130030995809125
:1012B0006F0281110FC081E080936F0210924F0284
:1012C00009C0803C09F4A6CF883C09F4A3CF883B31
:1012D00009F07DCFE091700281E08E0F8093700263
:1012E000F0E0E15BFD4F80818093BB009091700244
:1012F00080916F0229C0809193028093BB0085EC9E
:101300008093BC0064CF9091B5028091B40298178D
:1013100058F5E091B50281E08E0F8093B502F0E0C0
:10132000EC56FD4F8081E9CFE091B50281E08E0F50
:101330008093B5028091BB00F0E0EC56FD4F8083B6
:101340009091B5028091B4029817C8F285E8D8CF81
:10135000E091B50281E08E0F8093B5028091BB00D1
:10136000F0E0EC56FD4F80838091B70281115CCF95
:1013700081E08093920284EA8093BC001092B802CC
:1013800026CF85EC8093BC001092B8028091910228
:10139000803230F4E0919102F0E0EF58FD4F10827E
:1013A0006091910270E0E0912D03F0912E0381E7AE
:1013B00092E00995109291020ACF1092B60234CFB2
:1013C000109244031092430388EE93E0A0E0B0E053
:1013D0008093450390934603A0934703B09348033B
:1013E00022E131E0309342032093410325EC30E0C9
:1013F00030934E0320934D0324EC30E030935003A0
:1014000020934F0320EC30E030935203209351039C
:1014100021EC30E0309354032093530322EC30E06E
:10142000309356032093550326EC30E03093580355
:101430002093570310925A0310925B0310925C039F
:1014400010925D031092E1031092E0038093E20397
:101450009093E303A093E403B093E50324E231E027
:101460003093DF032093DE0310920C0410920B04E0
:1014700028E431E030930A042093090427E2209302
:101480000D0424E12093120424E02093130410920D
:1014900014041092ED031092EC038093EE039093EA
:1014A000EF03A093F003B093F10386E391E09093F0
:1014B000EB038093EA03109201041092000410924F
:1014C0000304109202041092050410920404109276
:1014D000070410920604609108046E7F6D7F60938C
:1014E00008046695617081E0682789E00E94EE013A
:1014F00061E089E00E941C02E7EBF0E0E491E093F8
:10150000FA03E3EAF0E0E491F0E0EE0FFF1FE057AA
:10151000FF4F859194919093FC038093FB0360E0CF
:1015200088E00E941C028091080481FD04C061E0F3
:1015300088E00E94EE0188E08093F603E6EBF0E09D
:10154000E491E093F703E2EAF0E0E491F0E0EE0FDB
:10155000FF1FEA57FF4F859194919093F903809371
:10156000F8030895CF93DF9300D000D000D0CDB71B
:10157000DEB7789484B5826084BD84B5816084BD13
:1015800085B5826085BD85B5816085BD80916E0021
:10159000816080936E001092810080918100826052
:1015A000809381008091810081608093810080918F
:1015B00080008160809380008091B100846080937E
:1015C000B1008091B00081608093B00080917A007A
:1015D000846080937A0080917A00826080937A00A0
:1015E00080917A00816080937A0080917A0080688F
:1015F00080937A001092C100E0915103F091520360
:1016000082E08083E0914D03F0914E031082E091DF
:101610004F03F09150038FEC808310925903E091B7
:101620005503F091560386E08083E0915303F091D7
:101630005403808180618083E0915303F0915403CF
:10164000808188608083E0915303F091540380810E
:1016500080688083E0915303F091540380818F7DF3
:1016600080831092050410920404109203041092D7
:10167000020410920104109200048DE991E090930D
:101680000704809306049091F603963108F047C052
:101690002DEB30E030930104209300042BE931E07E
:1016A00030930304209302042CE231E030930504CC
:1016B000209304042091680084E0983048F031E0E1
:1016C0009E3008F430E081E001C0880F3A95EAF7D7
:1016D000822B809368002DE630E0983050F02BE6A6
:1016E00030E09E3030F02CE630E0963110F030E003
:1016F00020E03093FE032093FD03292F30E0983043
:1017000008F028C281E001C0880F9A95EAF780931B
:10171000FF0380910604909107040197F1F78091EF
:10172000040490910504892B49F1E0912B03F09179
:101730002C0383E0EA3EF80709F1309739F0A389DA
:10174000B4899C918589809589238C938091080424
:101750008E7F8093080410922A03109229038AEE48
:1017600093E090932C0380932B03E091FD03F09181
:10177000FE0380819091FF03892B808310923403B4
:101780001092330310923203109231030E948C03A3
:101790008DE890E09093300380932F038EE890E0E3
:1017A00090932E0380932D0310920E0480911304C6
:1017B000823018F098E090930E048093110462E355
:1017C00070E080E090E00E9484026091140489E05F
:1017D00094E00E94500468EE73E080E090E00E9484
:1017E000840260E389E094E00E943A050BE416E489
:1017F000C8010197F1F760E389E094E00E943A059F
:10180000C8010197F1F760E389E094E00E943A058E
:1018100083E592E00197F1F760E289E094E00E94AD
:101820003A0560910E04606240E089E094E00E9415
:10183000530584E080930F0440E06CE089E094E07D
:101840000E94530540E061E089E094E00E94530566
:101850000BE31FE1C8010197F1F782E080931004C8
:1018600040E066E089E094E00E94530540E062E0D9
:1018700089E094E00E945305C8010197F1F788E0E0
:101880008093140460E089E094E00E94500461E0D9
:1018900087E00E941C0261E086E00E941C0261E079
:1018A00085E00E941C0260E08AE00E941C0280E049
:1018B000E82E80E0F82E8EE00E944D02BC01990FC8
:1018C000880B990B0E94E60D2AE038E240EA5BE3C0
:1018D0000E94450E2EEA37E441E250E40E94450E94
:1018E00060933D0370933E0380933F0390934003C6
:1018F0008FE00E944D02BC01990F880B990B0E944A
:10190000E60D2AE038E240EA5BE30E94450E20E063
:1019100030E040E250E40E943A0F24EA30E74DE321
:101920005EE30E94A70F6093390370933A0380939C
:101930003B0390933C0380E10E944D02BC01990F50
:10194000880B990B0E94E60D2AE038E240EA5BE33F
:101950000E94450E20E030E048EC52E40E94450E23
:101960006093350370933603809337039093380365
:1019700040E061E089E094E00E945305C8010197CE
:10198000F1F760E080E00E946A0589E891E00E943A
:10199000010661E080E00E946A058EE991E00E9404
:1019A000010661E084E00E946A056091390370914C
:1019B0003A0380913B0390913C0342E00E9406066B
:1019C00083EA91E00E94010661E08AE00E946A05D4
:1019D00085EA91E00E94010661E08FE00E946A05BD
:1019E00060913503709136038091370390913803ED
:1019F00041E00E9406068BEA91E00E94010662E047
:101A000080E00E946A058DEA91E00E94010662E092
:101A100089E00E946A0560913D0370913E038091C8
:101A20003F039091400342E00E94060686EB91E05E
:101A30000E94010663E080E00E946A0588EB91E065
:101A40000E94010663E087E00E946A0587E00E9429
:101A5000C501892B09F48BC081E891E00E94010641
:101A600020E030E040E752E46091350370913603A6
:101A700080913703909138030E94481018160CF09B
:101A800079C060E087E00E94EE0161E086E00E949C
:101A9000EE016FEB71E0CE0101960E942607CE01A8
:101AA00001960E94E406CE0101960E94A40520E062
:101AB00030E040E151E460913D0370913E0380913C
:101AC0003F03909140030E94DF0D87FF16C060E046
:101AD00087E00E94EE0161E086E00E94EE0160EE88
:101AE00071E0CE0101960E942607CE0101960E9468
:101AF000E406CE0101960E94A4058AE00E94C50179
:101B00000197B1F460E087E00E94EE0161E086E0B9
:101B10000E94EE0163E072E0CE0101960E9426076A
:101B2000CE0101960E94E406CE0101960E94A40512
:101B300068EE73E080E090E00E948402E114F1041A
:101B400009F4B9CE0E94F900882309F4B4CE0E94AA
:101B50000000B1CE9E3040F42850310981E001C030
:101B6000880F2A95EAF7D3CD2E503109F7CF85E8B3
:101B700091E074CF61E087E00E94EE0160E086E0D2
:101B80000E94EE0194CF86E391E09093EB03809363
:101B9000EA0380912B0390912C038A5E934071F4A9
:101BA000E091FD03F091FE0390818091FF03809509
:101BB0008923808310922C0310922B0308950E9496
:101BC000210E08F481E00895E89409C097FB3EF4E3
:101BD00090958095709561957F4F8F4F9F4F99237A
:101BE000A9F0F92F96E9BB279395F69587957795F8
:101BF0006795B795F111F8CFFAF4BB0F11F460FFB8
:101C00001BC06F5F7F4F8F4F9F4F16C0882311F00F
:101C100096E911C0772321F09EE8872F762F05C023
:101C2000662371F096E8862F70E060E02AF09A95BE
:101C3000660F771F881FDAF7880F9695879597F9B3
:101C40000895990F0008550FAA0BE0E8FEEF16164D
:101C50001706E807F907C0F012161306E407F507A0
:101C600098F0621B730B840B950B39F40A2661F014
:101C7000232B242B252B21F408950A2609F4A140B7
:101C8000A6958FEF811D811D08950E94580E0C941A
:101C9000C90E0E94BB0E38F00E94C20E20F09523A0
:101CA00011F00C94B20E0C94B80E11240C94FD0E8D
:101CB0000E94DA0E70F3959FC1F3950F50E0551F07
:101CC000629FF001729FBB27F00DB11D639FAA2791
:101CD000F00DB11DAA1F649F6627B00DA11D661FE0
:101CE000829F2227B00DA11D621F739FB00DA11D01
:101CF000621F839FA00D611D221F749F3327A00DBB
:101D0000611D231F849F600D211D822F762F6A2F56
:101D100011249F5750409AF0F1F088234AF0EE0FBB
:101D2000FF1FBB1F661F771F881F91505040A9F7E8
:101D30009E3F510580F00C94B20E0C94FD0E5F3F57
:101D4000E4F3983ED4F3869577956795B795F79524
:101D5000E7959F5FC1F7FE2B880F911D969587959C
:101D600097F9089597F99F6780E870E060E008951B
:101D70009FEF80EC089500240A94161617061806A3
:101D80000906089500240A9412161306140605067F
:101D90000895092E0394000C11F4882352F0BB0F10
:101DA00040F4BF2B11F460FF04C06F5F7F4F8F4F73
:101DB0009F4F089557FD9058440F551F59F05F3FAE
:101DC00071F04795880F97FB991F61F09F3F79F05D
:101DD00087950895121613061406551FF2CF4695DF
:101DE000F1DF08C0161617061806991FF1CF869561
:101DF0007105610508940895E894BB276627772745
:101E0000CB0197F908952F923F924F925F926F9274
:101E10007F928F929F92AF92BF92CF92DF92EF927A
:101E2000FF920F931F93CF93DF93CDB7DEB7CA1BFB
:101E3000DB0B0FB6F894DEBF0FBECDBF09942A8826
:101E4000398848885F846E847D848C849B84AA84CE
:101E5000B984C884DF80EE80FD800C811B81AA815B
:101E6000B981CE0FD11D0FB6F894DEBF0FBECDBF26
:101E7000ED0108955058BB27AA270E94520F0C94D9
:101E8000C90E0E94BB0E38F00E94C20E20F039F439
:101E90009F3F19F426F40C94B80E0EF4E095E7FB7E
:101EA0000C94B20EE92F0E94DA0E58F3BA176207AB
:101EB00073078407950720F079F4A6F50C94FC0EBF
:101EC0000EF4E0950B2EBA2FA02D0B01B901900155
:101ED0000C01CA01A0011124FF27591B99F0593F99
:101EE00050F4503E68F11A16F040A22F232F342FE1
:101EF0004427585FF3CF469537952795A795F0402F
:101F00005395C9F77EF41F16BA0B620B730B840B43
:101F1000BAF09150A1F0FF0FBB1F661F771F881FFB
:101F2000C2F70EC0BA0F621F731F841F48F4879553
:101F300077956795B795F7959E3F08F0B0CF939545
:101F4000880F08F09927EE0F9795879508950E94BE
:101F5000BB0F0C94C90E0E94C20E58F00E94BB0E1B
:101F600040F029F45F3F29F00C94B20E51110C940B
:101F7000FD0E0C94B80E0E94DA0E68F39923B1F3AB
:101F8000552391F3951B550BBB27AA27621773079F
:101F9000840738F09F5F5F4F220F331F441FAA1F33
:101FA000A9F335D00E2E3AF0E0E832D091505040EF
:101FB000E695001CCAF72BD0FE2F29D0660F771F9D
:101FC000881FBB1F261737074807AB07B0E809F083
:101FD000BB0B802DBF01FF2793585F4F3AF09E3F08
:101FE000510578F00C94B20E0C94FD0E5F3FE4F3B3
:101FF000983ED4F3869577956795B795F7959F5F4B
:10200000C9F7880F911D9695879597F90895E1E096
:10201000660F771F881FBB1F621773078407BA07F5
:1020200020F0621B730B840BBA0BEE1F88F7E09550
:1020300008950E94E20E88F09F5798F0B92F9927D3
:10204000B751B0F0E1F0660F771F881F991F1AF0A3
:10205000BA95C9F714C0B13091F00E94FC0EB1E0FE
:1020600008950C94FC0E672F782F8827B85F39F0FD
:10207000B93FCCF3869577956795B395D9F73EF43C
:1020800090958095709561957F4F8F4F9F4F0895E4
:102090000E94210E08F48FEF08950E94210E880BF4
:1020A000990B089597FB072E16F4009407D077FD3F
:1020B00009D00E94881007FC05D03EF490958195C8
:1020C0009F4F0895709561957F4F0895A1E21A2E54
:1020D000AA1BBB1BFD010DC0AA1FBB1FEE1FFF1FCC
:1020E000A217B307E407F50720F0A21BB30BE40B1C
:1020F000F50B661F771F881F991F1A9469F7609563
:102100007095809590959B01AC01BD01CF0108951C
:10211000AA1BBB1B51E107C0AA1FBB1FA617B7070D
:1021200010F0A61BB70B881F991F5A95A9F7809529
:102130009095BC01CD010895EE0FFF1F0590F4911D
:10214000E02D09940F931F93CF93DF938230910575
:1021500010F482E090E0E0911704F091180430E070
:1021600020E0B0E0A0E0309799F42115310509F4A2
:102170004AC0281B390B24303105D8F58A819B8150
:102180006115710589F1FB0193838283FE0111C002
:10219000408151810281138148175907E0F04817A7
:1021A000590799F4109761F012960C9312971396B1
:1021B0001C933296CF01DF91CF911F910F9108951B
:1021C0000093170410931804F4CF2115310551F032
:1021D0004217530738F0A901DB019A01BD01DF0165
:1021E000F801C1CFEF01F9CF909318048093170441
:1021F000CDCFFE01E20FF31F81939193225031095D
:1022000039832883D7CF2091150430911604232BCE
:1022100041F4209102013091030130931604209380
:10222000150420910001309101012115310541F47F
:102230002DB73EB74091040150910501241B350B89
:10224000E0911504F0911604E217F307A0F42E1B99
:102250003F0B2817390778F0AC014E5F5F4F24170A
:10226000350748F04E0F5F1F509316044093150436
:10227000819391939FCFF0E0E0E09CCFCF93DF93E9
:102280000097E9F0FC01329713821282A0911704A3
:10229000B0911804ED0130E020E01097A1F4208106
:1022A0003181820F931F2091150430911604281755
:1022B000390709F061C0F0931604E0931504DF912B
:1022C000CF910895EA01CE17DF07E8F54A815B81D7
:1022D0009E0141155105B1F7E901FB83EA8349915C
:1022E0005991C40FD51FEC17FD0761F480819181CE
:1022F0000296840F951FE9019983888382819381D7
:102300009B838A83F0E0E0E012968D919C91139775
:102310000097B9F52D913C911197CD010296820F4E
:10232000931F20911504309116042817390739F6A8
:10233000309751F51092180410921704B0931604B8
:10234000A0931504BCCFD383C28340815181840FF5
:10235000951FC817D90761F44E5F5F4F8881998137
:10236000480F591F518340838A819B8193838283C5
:102370002115310509F0B0CFF0931804E09317044C
:102380009ECFFD01DC01C0CF13821282D7CFB0E017
:10239000A0E0EDECF1E10C94050F8C01009751F4F5
:1023A000CB010E94A2108C01C801CDB7DEB7E0E1DD
:1023B0000C94210FFC01E60FF71F9C0122503109FC
:1023C000E217F30708F49DC0D901CD91DC91119774
:1023D000C617D70798F0C530D10530F3CE01049762
:1023E0008617970708F3C61BD70B2297C193D19383
:1023F0006D937C93CF010E943E11D6CF5B01AC1A46
:10240000BD0A4C018C0E9D1EA0911704B0911804BA
:10241000512C412CF12CE12C109731F580911504B1
:10242000909116048815990509F05CC04616570668
:1024300008F058C08091000190910101009741F48B
:102440008DB79EB74091040150910501841B950BF7
:10245000E817F90708F055C0F0931604E093150447
:10246000F90171836083A0CF8D919C911197129691
:102470006C90129713967C901397A815B90559F58F
:102480006C0142E0C40ED11CCA14DB0420F1AC0183
:102490004A195B09DA011296159780F062827382FD
:1024A00051834083D9016D937C93E114F10471F061
:1024B000D7011396FC93EE93129776CF22968C0F4A
:1024C0009D1FF90191838083F301EFCFF0931804EE
:1024D000E093170469CF4816590608F42C017D01D2
:1024E000D3019ACFCB010E94A2107C01009749F042
:1024F000AE01B8010E948412C8010E943E118701FA
:1025000053CF10E000E050CFFB01DC0102C001908E
:102510000D9241505040D8F70895FB01DC01019025
:102520000D920020E1F7089510E0C2E6D0E004C06B
:10253000FE010E949C102196C336D107C9F7F8947A
:02254000FFCFCB
:102542000000190480000000400014005400000044
:1025520000002F018F00BC007C01ED00CB00DF00EA
:10256200000000002104F4033705CE02ED03DA0374
:10257200CB0300000000CF028F003705CE022B03F1
:102582004303B602000000009E058F003705640376
:102592006E616E00696E66006F76660041542B4371
:1025A2004D47463D31000D0A0041542B434D4753E0
:1025B2003D222B32353437383331333831323622FB
:1025C200004F4E20004F4646004D4F544F52205070
:1025D200524F54454354494F4E205359530043558B
:1025E200523A00410054454D503A004300564F4C78
:1025F200544147453A0056004D4F544F523A00411C
:102602004C4552543A20486967682054656D7021E0
:10261200204D6F746F722053746F707065642E005A
:10262200414C4552543A204C6F7720566F6C74617E
:10263200676521204D6F746F722053746F707065DF
:10264200642E00414C4552543A20566962726174BC
:10265200696F6E20446574656374656421204D6FF3
:0E266200746F722053746F707065642E0000E8
:00000001FF
